{
  "_format": "hh-sol-artifact-1",
  "contractName": "CreditCardMerkleTree",
  "sourceName": "contracts/CreditCardMerkleTree.sol",
  "abi": [
    {
      "inputs": [
        {
          "internalType": "bytes32",
          "name": "_merkleRoot",
          "type": "bytes32"
        }
      ],
      "stateMutability": "nonpayable",
      "type": "constructor"
    },
    {
      "anonymous": false,
      "inputs": [
        {
          "indexed": true,
          "internalType": "bytes32",
          "name": "hashedNumber",
          "type": "bytes32"
        },
        {
          "indexed": false,
          "internalType": "uint256",
          "name": "expirationDate",
          "type": "uint256"
        },
        {
          "indexed": false,
          "internalType": "address",
          "name": "owner",
          "type": "address"
        }
      ],
      "name": "CreditCardAdded",
      "type": "event"
    },
    {
      "inputs": [
        {
          "internalType": "bytes32",
          "name": "_hashedNumber",
          "type": "bytes32"
        },
        {
          "internalType": "uint256",
          "name": "_expirationDate",
          "type": "uint256"
        },
        {
          "internalType": "bytes32[]",
          "name": "_merkleProof",
          "type": "bytes32[]"
        }
      ],
      "name": "addCreditCard",
      "outputs": [],
      "stateMutability": "nonpayable",
      "type": "function"
    },
    {
      "inputs": [
        {
          "internalType": "bytes32",
          "name": "",
          "type": "bytes32"
        }
      ],
      "name": "creditCards",
      "outputs": [
        {
          "internalType": "bytes32",
          "name": "hashedNumber",
          "type": "bytes32"
        },
        {
          "internalType": "uint256",
          "name": "expirationDate",
          "type": "uint256"
        },
        {
          "internalType": "address",
          "name": "owner",
          "type": "address"
        }
      ],
      "stateMutability": "view",
      "type": "function"
    },
    {
      "inputs": [
        {
          "internalType": "bytes32",
          "name": "_hashedNumber",
          "type": "bytes32"
        }
      ],
      "name": "getCreditCardInfo",
      "outputs": [
        {
          "internalType": "uint256",
          "name": "",
          "type": "uint256"
        },
        {
          "internalType": "address",
          "name": "",
          "type": "address"
        }
      ],
      "stateMutability": "view",
      "type": "function"
    },
    {
      "inputs": [],
      "name": "merkleRoot",
      "outputs": [
        {
          "internalType": "bytes32",
          "name": "",
          "type": "bytes32"
        }
      ],
      "stateMutability": "view",
      "type": "function"
    },
    {
      "inputs": [
        {
          "internalType": "bytes32",
          "name": "_hashedNumber",
          "type": "bytes32"
        },
        {
          "internalType": "bytes32[]",
          "name": "_merkleProof",
          "type": "bytes32[]"
        }
      ],
      "name": "verifyCreditCard",
      "outputs": [
        {
          "internalType": "bool",
          "name": "",
          "type": "bool"
        }
      ],
      "stateMutability": "view",
      "type": "function"
    }
  ],
  "bytecode": "0x608060405234801561001057600080fd5b50604051610b42380380610b428339818101604052810190610032919061007a565b80600081905550506100a7565b600080fd5b6000819050919050565b61005781610044565b811461006257600080fd5b50565b6000815190506100748161004e565b92915050565b6000602082840312156100905761008f61003f565b5b600061009e84828501610065565b91505092915050565b610a8c806100b66000396000f3fe608060405234801561001057600080fd5b50600436106100575760003560e01c80630cdcee8f1461005c5780632eb4a7ab1461008e5780636851c518146100ac578063b50f32f0146100c8578063e28348b4146100f8575b600080fd5b610076600480360381019061007191906104f4565b610129565b6040516100859392919061058a565b60405180910390f35b610096610173565b6040516100a391906105c1565b60405180910390f35b6100c660048036038101906100c19190610761565b610179565b005b6100e260048036038101906100dd91906107d0565b6102a3565b6040516100ef9190610847565b60405180910390f35b610112600480360381019061010d91906104f4565b6102e5565b604051610120929190610862565b60405180910390f35b60016020528060005260406000206000915090508060000154908060010154908060020160009054906101000a900473ffffffffffffffffffffffffffffffffffffffff16905083565b60005481565b61018383826102a3565b6101c2576040517f08c379a00000000000000000000000000000000000000000000000000000000081526004016101b9906108e8565b60405180910390fd5b60405180606001604052808481526020018381526020013373ffffffffffffffffffffffffffffffffffffffff1681525060016000858152602001908152602001600020600082015181600001556020820151816001015560408201518160020160006101000a81548173ffffffffffffffffffffffffffffffffffffffff021916908373ffffffffffffffffffffffffffffffffffffffff160217905550905050827f2e02975b7a202fc815d335569ca4884d1bb86acbe2fc914c9d4954c7d85f4c708333604051610296929190610862565b60405180910390a2505050565b600080836040516020016102b79190610929565b6040516020818303038152906040528051906020012090506102dc83600054836103fb565b91505092915050565b60008060006001600085815260200190815260200160002060405180606001604052908160008201548152602001600182015481526020016002820160009054906101000a900473ffffffffffffffffffffffffffffffffffffffff1673ffffffffffffffffffffffffffffffffffffffff1673ffffffffffffffffffffffffffffffffffffffff16815250509050600073ffffffffffffffffffffffffffffffffffffffff16816040015173ffffffffffffffffffffffffffffffffffffffff16036103e7576040517f08c379a00000000000000000000000000000000000000000000000000000000081526004016103de90610990565b60405180910390fd5b806020015181604001519250925050915091565b6000826104088584610412565b1490509392505050565b60008082905060005b845181101561045d576104488286838151811061043b5761043a6109b0565b5b6020026020010151610468565b9150808061045590610a0e565b91505061041b565b508091505092915050565b60008183106104805761047b8284610493565b61048b565b61048a8383610493565b5b905092915050565b600082600052816020526040600020905092915050565b6000604051905090565b600080fd5b600080fd5b6000819050919050565b6104d1816104be565b81146104dc57600080fd5b50565b6000813590506104ee816104c8565b92915050565b60006020828403121561050a576105096104b4565b5b6000610518848285016104df565b91505092915050565b61052a816104be565b82525050565b6000819050919050565b61054381610530565b82525050565b600073ffffffffffffffffffffffffffffffffffffffff82169050919050565b600061057482610549565b9050919050565b61058481610569565b82525050565b600060608201905061059f6000830186610521565b6105ac602083018561053a565b6105b9604083018461057b565b949350505050565b60006020820190506105d66000830184610521565b92915050565b6105e581610530565b81146105f057600080fd5b50565b600081359050610602816105dc565b92915050565b600080fd5b6000601f19601f8301169050919050565b7f4e487b7100000000000000000000000000000000000000000000000000000000600052604160045260246000fd5b6106568261060d565b810181811067ffffffffffffffff821117156106755761067461061e565b5b80604052505050565b60006106886104aa565b9050610694828261064d565b919050565b600067ffffffffffffffff8211156106b4576106b361061e565b5b602082029050602081019050919050565b600080fd5b60006106dd6106d884610699565b61067e565b90508083825260208201905060208402830185811115610700576106ff6106c5565b5b835b81811015610729578061071588826104df565b845260208401935050602081019050610702565b5050509392505050565b600082601f83011261074857610747610608565b5b81356107588482602086016106ca565b91505092915050565b60008060006060848603121561077a576107796104b4565b5b6000610788868287016104df565b9350506020610799868287016105f3565b925050604084013567ffffffffffffffff8111156107ba576107b96104b9565b5b6107c686828701610733565b9150509250925092565b600080604083850312156107e7576107e66104b4565b5b60006107f5858286016104df565b925050602083013567ffffffffffffffff811115610816576108156104b9565b5b61082285828601610733565b9150509250929050565b60008115159050919050565b6108418161082c565b82525050565b600060208201905061085c6000830184610838565b92915050565b6000604082019050610877600083018561053a565b610884602083018461057b565b9392505050565b600082825260208201905092915050565b7f496e76616c6964204d65726b6c652070726f6f66000000000000000000000000600082015250565b60006108d260148361088b565b91506108dd8261089c565b602082019050919050565b60006020820190508181036000830152610901816108c5565b9050919050565b6000819050919050565b61092361091e826104be565b610908565b82525050565b60006109358284610912565b60208201915081905092915050565b7f4372656469742063617264206e6f7420666f756e640000000000000000000000600082015250565b600061097a60158361088b565b915061098582610944565b602082019050919050565b600060208201905081810360008301526109a98161096d565b9050919050565b7f4e487b7100000000000000000000000000000000000000000000000000000000600052603260045260246000fd5b7f4e487b7100000000000000000000000000000000000000000000000000000000600052601160045260246000fd5b6000610a1982610530565b91507fffffffffffffffffffffffffffffffffffffffffffffffffffffffffffffffff8203610a4b57610a4a6109df565b5b60018201905091905056fea264697066735822122014833d7f6d90a415d62cf9531b3c697f0e279cd8ca122d30f6337961cf238bf864736f6c63430008140033",
  "linkReferences": {},
  "deployedLinkReferences": {}
}